{
  "contractName": "Person",
  "abi": [
    {
      "inputs": [
        {
          "internalType": "string",
          "name": "",
          "type": "string"
        }
      ],
      "name": "getDetails",
      "outputs": [
        {
          "internalType": "string",
          "name": "F_Name",
          "type": "string"
        },
        {
          "internalType": "string",
          "name": "Cnic",
          "type": "string"
        }
      ],
      "stateMutability": "view",
      "type": "function",
      "constant": true
    },
    {
      "inputs": [
        {
          "internalType": "string",
          "name": "name",
          "type": "string"
        },
        {
          "internalType": "string",
          "name": "f_name",
          "type": "string"
        },
        {
          "internalType": "string",
          "name": "cnic",
          "type": "string"
        }
      ],
      "name": "addDetails",
      "outputs": [],
      "stateMutability": "nonpayable",
      "type": "function"
    },
    {
      "inputs": [
        {
          "internalType": "string",
          "name": "name",
          "type": "string"
        }
      ],
      "name": "getCnic",
      "outputs": [
        {
          "internalType": "string",
          "name": "",
          "type": "string"
        }
      ],
      "stateMutability": "view",
      "type": "function",
      "constant": true
    },
    {
      "inputs": [
        {
          "internalType": "string",
          "name": "name",
          "type": "string"
        }
      ],
      "name": "getFName",
      "outputs": [
        {
          "internalType": "string",
          "name": "",
          "type": "string"
        }
      ],
      "stateMutability": "view",
      "type": "function",
      "constant": true
    }
  ],
  "bytecode": "0x608060405234801561001057600080fd5b50610ab1806100206000396000f3fe608060405234801561001057600080fd5b506004361061004c5760003560e01c80631328fd8f14610051578063728bb67114610082578063c9842b041461009e578063d238b98b146100ce575b600080fd5b61006b6004803603810190610066919061056f565b6100fe565b604051610079929190610640565b60405180910390f35b61009c60048036038101906100979190610677565b610248565b005b6100b860048036038101906100b3919061056f565b6102af565b6040516100c5919061071e565b60405180910390f35b6100e860048036038101906100e3919061056f565b610362565b6040516100f5919061071e565b60405180910390f35b6000818051602081018201805184825260208301602085012081835280955050505050506000915090508060000180546101379061076f565b80601f01602080910402602001604051908101604052809291908181526020018280546101639061076f565b80156101b05780601f10610185576101008083540402835291602001916101b0565b820191906000526020600020905b81548152906001019060200180831161019357829003601f168201915b5050505050908060010180546101c59061076f565b80601f01602080910402602001604051908101604052809291908181526020018280546101f19061076f565b801561023e5780601f106102135761010080835404028352916020019161023e565b820191906000526020600020905b81548152906001019060200180831161022157829003601f168201915b5050505050905082565b60405180604001604052808381526020018281525060008460405161026d91906107dc565b9081526020016040518091039020600082015181600001908161029091906109a9565b5060208201518160010190816102a691906109a9565b50905050505050565b60606000826040516102c191906107dc565b908152602001604051809103902060010180546102dd9061076f565b80601f01602080910402602001604051908101604052809291908181526020018280546103099061076f565b80156103565780601f1061032b57610100808354040283529160200191610356565b820191906000526020600020905b81548152906001019060200180831161033957829003601f168201915b50505050509050919050565b606060008260405161037491906107dc565b908152602001604051809103902060000180546103909061076f565b80601f01602080910402602001604051908101604052809291908181526020018280546103bc9061076f565b80156104095780601f106103de57610100808354040283529160200191610409565b820191906000526020600020905b8154815290600101906020018083116103ec57829003601f168201915b50505050509050919050565b6000604051905090565b600080fd5b600080fd5b600080fd5b600080fd5b6000601f19601f8301169050919050565b7f4e487b7100000000000000000000000000000000000000000000000000000000600052604160045260246000fd5b61047c82610433565b810181811067ffffffffffffffff8211171561049b5761049a610444565b5b80604052505050565b60006104ae610415565b90506104ba8282610473565b919050565b600067ffffffffffffffff8211156104da576104d9610444565b5b6104e382610433565b9050602081019050919050565b82818337600083830152505050565b600061051261050d846104bf565b6104a4565b90508281526020810184848401111561052e5761052d61042e565b5b6105398482856104f0565b509392505050565b600082601f83011261055657610555610429565b5b81356105668482602086016104ff565b91505092915050565b6000602082840312156105855761058461041f565b5b600082013567ffffffffffffffff8111156105a3576105a2610424565b5b6105af84828501610541565b91505092915050565b600081519050919050565b600082825260208201905092915050565b60005b838110156105f25780820151818401526020810190506105d7565b83811115610601576000848401525b50505050565b6000610612826105b8565b61061c81856105c3565b935061062c8185602086016105d4565b61063581610433565b840191505092915050565b6000604082019050818103600083015261065a8185610607565b9050818103602083015261066e8184610607565b90509392505050565b6000806000606084860312156106905761068f61041f565b5b600084013567ffffffffffffffff8111156106ae576106ad610424565b5b6106ba86828701610541565b935050602084013567ffffffffffffffff8111156106db576106da610424565b5b6106e786828701610541565b925050604084013567ffffffffffffffff81111561070857610707610424565b5b61071486828701610541565b9150509250925092565b600060208201905081810360008301526107388184610607565b905092915050565b7f4e487b7100000000000000000000000000000000000000000000000000000000600052602260045260246000fd5b6000600282049050600182168061078757607f821691505b60208210810361079a57610799610740565b5b50919050565b600081905092915050565b60006107b6826105b8565b6107c081856107a0565b93506107d08185602086016105d4565b80840191505092915050565b60006107e882846107ab565b915081905092915050565b60008190508160005260206000209050919050565b60006020601f8301049050919050565b600082821b905092915050565b6000600883026108557fffffffffffffffffffffffffffffffffffffffffffffffffffffffffffffffff82610818565b61085f8683610818565b95508019841693508086168417925050509392505050565b6000819050919050565b6000819050919050565b60006108a66108a161089c84610877565b610881565b610877565b9050919050565b6000819050919050565b6108c08361088b565b6108d46108cc826108ad565b848454610825565b825550505050565b600090565b6108e96108dc565b6108f48184846108b7565b505050565b5b818110156109185761090d6000826108e1565b6001810190506108fa565b5050565b601f82111561095d5761092e816107f3565b61093784610808565b81016020851015610946578190505b61095a61095285610808565b8301826108f9565b50505b505050565b600082821c905092915050565b600061098060001984600802610962565b1980831691505092915050565b6000610999838361096f565b9150826002028217905092915050565b6109b2826105b8565b67ffffffffffffffff8111156109cb576109ca610444565b5b6109d5825461076f565b6109e082828561091c565b600060209050601f831160018114610a135760008415610a01578287015190505b610a0b858261098d565b865550610a73565b601f198416610a21866107f3565b60005b82811015610a4957848901518255600182019150602085019450602081019050610a24565b86831015610a665784890151610a62601f89168261096f565b8355505b6001600288020188555050505b50505050505056fea26469706673582212209d0af3c805c0050430b443f6554ed7c4e182ee4e6623b0bc55bbe04d5278c26364736f6c634300080f0033",
  "immutableReferences": {},
  "source": "// SPDX-License-Identifier: GPL-3.0\n\npragma solidity >=0.7.0 <0.9.0;\n\ncontract Person {\n\n    struct P_Details {\n        string F_Name;\n        string Cnic;\n       \n    }\n\n    mapping(string => P_Details) public getDetails;\n\n    function addDetails(string memory  name,string memory f_name,string memory cnic)public{\n        getDetails[name] = P_Details(f_name,cnic);\n    }\n\n    function getCnic(string memory name)public view returns(string memory){\n        return getDetails[name].Cnic;\n    }\n\n    \n    function getFName(string memory name)public view returns(string memory){\n        return getDetails[name].F_Name;\n    }\n\n\n}",
  "sourcePath": "/home/taimoor47/Truffle Project/contracts/Migrations.sol",
  "compiler": {
    "name": "solc",
    "version": "0.8.15+commit.e14f2714.Emscripten.clang"
  },
  "schemaVersion": "3.4.8",
  "updatedAt": "2022-07-28T14:39:50.960Z",
  "networkType": "ethereum",
  "devdoc": {
    "kind": "dev",
    "methods": {},
    "version": 1
  },
  "userdoc": {
    "kind": "user",
    "methods": {},
    "version": 1
  }
}